:020000040800F2
:1000000000000020890100082904000829040008D4
:10001000290400082904000829040008290400080C
:1000200029040008290400082904000829040008FC
:1000300029040008290400082904000829040008EC
:1000400029040008290400082904000829040008DC
:1000500029040008290400082904000829040008CC
:1000600029040008290400082904000829040008BC
:1000700029040008290400082904000829040008AC
:10008000290400082904000829040008290400089C
:10009000290400082904000829040008290400088C
:1000A000290400082904000829040008290400087C
:1000B000290400082904000829040008290400086C
:1000C000290400082904000829040008290400085C
:1000D000290400082904000829040008290400084C
:1000E000290400082904000829040008290400083C
:1000F000290400082904000829040008290400082C
:10010000290400082904000829040008290400081B
:10011000290400082904000829040008290400080B
:1001200029040008290400082904000829040008FB
:1001300029040008290400082904000829040008EB
:1001400029040008290400082904000829040008DB
:1001500029040008290400082904000829040008CB
:1001600029040008290400082904000829040008BB
:1001700029040008290400082904000829040008AB
:100180002904000829040008104880F30988022087
:1001900080F31488BFF36F8F0D4880470D490E4AD6
:1001A0000E4B9A423EBF51F8040B42F8040BF8E79D
:1001B00000200B490B4A91423CBF41F8040BFAE77F
:1001C0000948804709488047FEE77047000400203F
:1001D000CB010008A005000800000020000000205E
:1001E0000000002000000020CB010008F101000801
:1001F00080B582B000AF154B3B6000F057F800F0BF
:100200000DF91349134800F063F840F201120D2173
:10021000114800F023F900237B6002E07B68013382
:100220007B607A683B689A42F8D30C4B01221A60D3
:1002300000237B6002E07B6801337B607A683B6867
:100240009A42F8D3054B00221A60E4E780969800A2
:10025000007A030A00127A0000180240B4024342F6
:1002600080B485B000AF78607B68DB090D4AA2FBE3
:1002700003239B0AFB60FB6803F00703FB600A4A49
:10028000FB681360084AFB6843F4C0531360064AD6
:10029000FB6843F4E063136000BF1437BD465DF8AC
:1002A000047B7047C7541E01003C024080B400AF7D
:1002B000064A064BD3F8883043F47003C2F88830FE
:1002C00000BFBD465DF8047B704700BF00ED00E055
:1002D00080B58CB000AF7860396000233B620023AA
:1002E000FB610023BB6100237B61434B01221A6049
:1002F0003868FFF7B5FF0223FB624AE07A68FB6AC1
:10030000B2FBF3F33B613B693C4A93423DD93B6905
:100310003B4A934239D84023BB6231E03B69BA6A19
:1003200002FB03F3FB60FB68364A934224D9FB6867
:10033000354A934220D802237B6219E0FA687B6A2F
:10034000B2FBF3F3BB60BA683B689A420CD8BA6858
:100350007B699A4209D9BB687B61FB6A3B62BB6AD5
:10036000FB617B6ABB6100E000BF7B6A02337B629A
:100370007B6A082BE2D900E000BFBB6A0133BB6295
:10038000BB6AB3F5D87FC9D900E000BFFB6A01336F
:10039000FB62FB6A3F2BB1D91C49FB699A013B6A9E
:1003A0001A43BB695B08013B1B04134343F014630E
:1003B0004B60164B4FF414429A6000BF144B1B68FD
:1003C000002BFBD0134B01221A6000BF124B1B689D
:1003D000002BFBD00D4A0D4B9B6843F0020393604A
:1003E00000BF0A4B9B6803F00C03082BF9D17B6913
:1003F00018463037BD4680BD400047423F420F009F
:1004000080841E00FF8FD00300CCBF19003802404B
:1004100044004742600047426400474280B500AF55
:1004200000F00AF800BF80BD684620F007018D4645
:1004300081B400AFFEE700BF80B400AF064A064BB0
:100440001B6B6FEA53236FEA4323136300BFBD4660
:100450005DF8047B704700BF0038024080B48BB069
:1004600000AFF860B9607A60FB681B683B62BB68EC
:100470005B00032202FA03F3DB431A463B6A134094
:100480003B627B6803F00F02BB685B0002FA03F378
:100490003A6A13433B62FB683A6A1A60FB685B681E
:1004A000FB610122BB6802FA03F3DB431A46FB69D6
:1004B0001340FB617B681B0903F00F02BB6802FA63
:1004C00003F3FA691343FB61FB68FA695A60FB683E
:1004D0009B68BB61BB685B00032202FA03F3DB434A
:1004E0001A46BB691340BB617B681B0A03F00F020D
:1004F000BB685B0002FA03F3BA691343BB61FB6894
:10050000BA699A60FB68DB687B61BB685B000322A9
:1005100002FA03F3DB431A467B6913407B617B6875
:100520001B0B03F00F02BB685B0002FA03F37A694E
:1005300013437B61FB687A69DA60BB68072B02D8DA
:1005400000237B6204E001237B62BB68083BBB6045
:10055000FB687A6A083253F822303B61BB689B0023
:100560000F2202FA03F3DB431A463B6913403B6157
:100570007B681B0C03F00F02BB689B0002FA03F3BD
:100580003A6913433B61FB687A6A0832396943F878
:10059000221000BF2C37BD465DF8047B704700BFBA
:040000050800018965
:00000001FF
