:020000040800F2
:100000000000002089010008090200080902000818
:100010000902000809020008090200080902000894
:100020000902000809020008090200080902000884
:100030000902000809020008090200080902000874
:100040000902000809020008090200080902000864
:100050000902000809020008090200080902000854
:100060000902000809020008090200080902000844
:100070000902000809020008090200080902000834
:100080000902000809020008090200080902000824
:100090000902000809020008090200080902000814
:1000A0000902000809020008090200080902000804
:1000B00009020008090200080902000809020008F4
:1000C00009020008090200080902000809020008E4
:1000D00009020008090200080902000809020008D4
:1000E00009020008090200080902000809020008C4
:1000F00009020008090200080902000809020008B4
:1001000009020008090200080902000809020008A3
:100110000902000809020008090200080902000893
:100120000902000809020008090200080902000883
:100130000902000809020008090200080902000873
:100140000902000809020008090200080902000863
:100150000902000809020008090200080902000853
:100160000902000809020008090200080902000843
:100170000902000809020008090200080902000833
:100180000902000809020008104880F309880220CB
:1001900080F31488BFF36F8F0D4880470D490E4AD6
:1001A0000E4B9A423EBF51F8040B42F8040BF8E79D
:1001B00000200B490B4A91423CBF41F8040BFAE77F
:1001C0000948804709488047FEE77047000400203F
:1001D000CB0100085C0300080000002000000020A4
:1001E0000000002000000020CB010008F101000801
:1001F00080B500AF40F201120D21024800F00CF86A
:10020000FEE700BF00180240684620F007018D4657
:1002100081B400AFFEE700BF80B48BB000AFF860E0
:10022000B9607A60FB681B683B62BB685B000322B5
:1002300002FA03F3DB431A463B6A13403B627B68D6
:1002400003F00F02BB685B0002FA03F33A6A134340
:100250003B62FB683A6A1A60FB685B68FB610122DB
:10026000BB6802FA03F3DB431A46FB691340FB61E8
:100270007B681B0903F00F02BB6802FA03F3FA69FB
:100280001343FB61FB68FA695A60FB689B68BB61BA
:10029000BB685B00032202FA03F3DB431A46BB6927
:1002A0001340BB617B681B0A03F00F02BB685B0055
:1002B00002FA03F3BA691343BB61FB68BA699A6037
:1002C000FB68DB687B61BB685B00032202FA03F317
:1002D000DB431A467B6913407B617B681B0B03F091
:1002E0000F02BB685B0002FA03F37A6913437B6178
:1002F000FB687A69DA60BB68072B02D800237B624F
:1003000004E001237B62BB68083BBB60FB687A6A40
:10031000083253F822303B61BB689B000F2202FA7F
:1003200003F3DB431A463B6913403B617B681B0CBC
:1003300003F00F02BB689B0002FA03F33A69134310
:100340003B61FB687A6A0832396943F8221000BFC2
:0C0350002C37BD465DF8047B704700BFF1
:040000050800018965
:00000001FF
